:100000000CEF00F0FF00FF00FACF02F0FBCF03F08F
:10001000E9CF04F043ED17F0C7EF27F0C7D2000196
:100020000001D205D8A401D001D095D15B6E020E9B
:10003000166E5B508EEC13F00009D8A401D001D0ED
:100040000BD083EC23F05B6E020E106E5B5030EC35
:1000500022F039EC29F078D1B3EC20F00009D8A4D3
:1000600001D001D01FD0A8EC1FF0F3C010F0F4C0F5
:1000700011F0F5C012F0F6C013F0D1EC26F0000933
:10008000D8B401D001D00BD0F3C055F0F4C056F075
:10009000F5C057F0F6C058F0B1EC07F000D022ECF4
:1000A0001BF08CD218EC23F05CEC0FF0696E6950F9
:1000B000D8B401D001D02FD1695000010001B5277B
:1000C000000E0001B62369505B6E5C6A00010001FE
:1000D000B3515B5C00010001B4515C58D8A001D061
:1000E00001D003D03EEC18F007D0695000010001A8
:1000F000B35F000E0001B45B6904D8A401D001D045
:1001000026D0010E6724106E116A000E1122000E17
:10011000136E0A0E126E73EC28F010C05BF011C063
:100120005CF0000E5CBEFF0E5D6E5E6E5B5000010B
:100130000001F3275C5000010001F4235D50000131
:100140000001F5235E5000010001F62300D0695044
:10015000020AD8A401D001D026D0010E6724106E67
:10016000116A000E1122000E136E1E0E126E73EC39
:1001700028F010C05BF011C05CF0000E5CBEFF0EFA
:100180005D6E5E6E5B5000010001F3275C50000164
:100190000001F4235D5000010001F5235E500001D1
:1001A0000001F62300D06950030AD8A401D001D081
:1001B00026D0010E6724106E116A000E1122000E67
:1001C000136E3C0E126E73EC28F010C05BF011C081
:1001D0005CF0000E5CBEFF0E5D6E5E6E5B5000015B
:1001E0000001F3275C5000010001F4235D50000181
:1001F0000001F5235E5000010001F62300D0695094
:10020000040AD8A401D001D025D0010E6724106EB5
:10021000116A000E1122000E136E640E126E73EC42
:1002200028F010C05BF011C05CF0000E5CBEFF0E49
:100230005D6E5E6E5B5000010001F3275C500001B3
:100240000001F4235D5000010001F5235E50000120
:100250000001F623000E2D6EA30E2C6E000E2F6EE5
:10026000140E2E6E000E316E4D0E306E000E336E7B
:100270000E0E326EBB0E356EBB0E346EDBEC28F00C
:10028000000E00010001C66FA30E0001C56F000E35
:1002900000010001C86F140E0001C76F7F0E406E91
:1002A000FB0E3F6EF3C041F0F4C042F0F5C043F0E6
:1002B000F6C044F0DFEC02F0000E2D6EA30E2C6EA3
:1002C000000E2F6E360E2E6E000E316E4D0E306EFD
:1002D000000E336E0E0E326EBB0E356EBB0E346EDC
:1002E000DBEC28F0000E00010001C66FA30E000138
:1002F000C56F000E00010001C86F360E0001C76F08
:100300007F0E406EFB0E3F6EB5C041F0B6C042F0AE
:10031000DFEC02F000D0FF0E6B24106E116AFF0EAE
:100320001122000E136E1F0E126E73EC28F0F90EE0
:1003300010245F6E7C0E1120606E5FC036F060C0CE
:1003400037F0D2EC0DF000D05B6E000E0001000122
:10035000D26F5B5000D083B201D001D00BD06C665D
:1003600001D001D007D05B6E010E6C6E5B5073EC58
:1003700005F000D083A201D001D00AD06C50D8B4CF
:1003800001D001D005D05B6E000E6C6E5B5000D0CA
:1003900083B601D001D025D06E6601D001D021D026
:1003A0005B6E010E6E6E5B505B6E100E0001000105
:1003B000CB6F5B505B6E000E166E5B508EEC13F0D5
:1003C0000009D8A401D001D00CD083EC23F05B6EDF
:1003D000000E106E5B5030EC22F039EC29F001D0A9
:1003E00000D083A601D001D00AD06E50D8B401D07D
:1003F00001D005D05B6E000E6E6E5B5000D083BCEA
:1004000001D001D025D0706601D001D021D05B6E23
:10041000010E706E5B505B6E100E00010001CB6F21
:100420005B505B6E010E166E5B508EEC13F0000994
:10043000D8A401D001D00CD083EC23F05B6E010E68
:10044000106E5B5030EC22F039EC29F001D000D076
:1004500083AC01D001D00AD07050D8B401D001D003
:1004600005D05B6E000E706E5B5000D083BE01D075
:1004700001D00DD05B6E010E00010001CE6F5B500C
:100480005B6E010E00010001CD6F5B5011D00001C9
:100490000001CE51D8B401D001D00AD05B6E000E5D
:1004A00000010001CE6F5B5066C0CDF001D000D0DE
:1004B00000010001D105D8A401D001D03DD05B6E70
:1004C000000E00010001D16F5B5083B601D001D056
:1004D00017D05B6E000E166E5B508EEC13F00009A9
:1004E000D8A401D001D00CD083EC23F05B6E000EB9
:1004F000106E5B5030EC22F039EC29F001D000D0C6
:1005000083BC01D001D018D05B6E010E166E5B501B
:100510008EEC13F00009D8A401D001D00DD083ECEB
:1005200023F05B6E010E106E5B5030EC22F039EC64
:1005300029F002D001D000D083B801D001D011D071
:1005400000010001CC6701D001D00BD06F6601D053
:1005500001D007D0C6EC1DF05B6E010E6F6E5B50D4
:1005600000D083B801D001D012D000010001CC51DD
:10057000D8B401D001D00BD06F6601D001D007D024
:100580001AEC1FF05B6E010E6F6E5B5000D083A8FB
:1005900001D001D00BD06F50D8B401D001D006D01B
:1005A0005B6E000E6F6E5B5001D000D00001000149
:1005B000F751D8B401D001D032D500D01200000ECE
:1005C0004C6E410E4B6E7FD24D50250AD8B401D0EF
:1005D00001D005D04DC03DF015EC28F074D2000ECE
:1005E000506E000E4F6E476E000E4E6E475006D096
:1005F00005D04E863F4A402A01D00CD03FC0F6FFBE
:1006000040C0F7FF0800F5502D0AD8B4F2D702D049
:1006100001D0F4D73FC0F6FF40C0F7FF0800F5CF88
:1006200010F0ACEC28F0D8A001D001D0DAD0000E48
:10063000506E000E4F6E00D04FC010F050C011F041
:10064000000E136E0A0E126E73EC28F03FC0F6FF18
:1006500040C0F7FF0800F5501026000E1122D00E02
:1006600010244F6EFF0E1120506E3F4A402A3FC0AB
:10067000F6FF40C0F7FF0800F5CF10F0ACEC28F013
:10068000D8B001D001D0D8D7ACD0ABD0AAD0A9D0A7
:1006900029D24E88A6D0C2D0C1D04BC0D9FF4CC001
:1006A000DAFFDECF51F0DDCF52F0020E4B26000E06
:1006B0004C2252505110D8A401D001D004D07F0E4A
:1006C000526ED40E516E000E546E000E536E03D057
:1006D000534A542A00D051C047F052C048F05350FA
:1006E0004726545048224750F66EE96E050EEA6ED2
:1006F0004850EA6403D0EA6EEF5003D0F76E08006A
:10070000F5500009D8A401D001D0E2D700D04F5055
:10071000535C50505458D8B001D001D007D020EECF
:1007200053F0DE504F5EDD50505A05D0000E506E33
:10073000000E4F6E00D04EB601D001D02AD008D0A6
:1007400007D0476E200E3D6E475015EC28F000D0C4
:100750004F06D8A050064F28D8B45028D8A401D0AE
:1007600001D0EFD716D015D014D05150F66EE96EE7
:10077000050EEA6E5250EA6403D0EA6EEF5003D0E1
:10078000F76E0800F5503D6E15EC28F0514A522ADC
:1007900000D05306D8A054065328D8B45428D8A45F
:1007A00001D001D0E2D74EA601D001D08CD108D023
:1007B00007D0476E200E3D6E475015EC28F000D054
:1007C0004F06D8A050064F28D8B45028D8A401D03E
:1007D00001D0EFD778D177D176D175D14E8C1ED09C
:1007E0001DD03FC0F6FF40C0F7FF3F4A402A080037
:1007F000F5CF4DF04D50000AD8B474D1640AD8B486
:100800000DD00D0AD8B40AD0050AD8B442D71F0AB1
:10081000D8B443D7060AD8B4E1D755D14EBC01D0DD
:1008200001D037D04EA801D001D011D04BC0D9FF94
:100830004CC0DAFFDECF51F0DECF52F0DECF53F006
:10084000DECF54F0040E4B26000E4C2212D04BC0CB
:10085000D9FF4CC0DAFFDECF51F0DDCF52F0000EF1
:1008600052BEFF0E536E546E020E4B26000E4C22EB
:1008700000D054AE01D001D035D0030E4E12541E1C
:10088000531E521E516C000E5222532254222AD063
:1008900029D04EA801D001D011D04BC0D9FF4CC0F7
:1008A000DAFFDECF51F0DECF52F0DECF53F0DECFF5
:1008B00054F0040E4B26000E4C2214D04BC0D9FF2E
:1008C0004CC0DAFFDECF47F0DDCF48F047C051F033
:1008D00048C052F0536A546A020E4B26000E4C2256
:1008E00001D000D0476E010E4D6E47504D500A0AA0
:1008F000D8A401D001D002D023D022D04D50040D75
:10090000A20EF324F66E5B0EF420F76E0900F5508C
:10091000515C0900F55052580900F5505358090030
:10092000F5505458D8B001D001D002D009D008D029
:100930004D2A4D500A0AD8A401D001D0DFD700D0EB
:1009400050504F10D8B401D001D00AD04E50030BF4
:10095000D8B401D001D004D04F06D8A0500600D0A2
:10096000800E4DBE7F0E476E4F504D5C5050800A3A
:100970004758D8B001D001D007D04D504F5E000E7F
:100980004DBEFF0E505A05D0000E506E000E4F6E39
:1009900000D050504F10D8B401D001D016D04EB670
:1009A00001D001D012D000D0476E200E3D6E4750CE
:1009B00015EC28F04F06D8A0500650504F10D8A480
:1009C00001D001D0F1D701D000D04E50030BD8B4E4
:1009D00001D001D007D0476E2D0E3D6E475015EC6B
:1009E00028F000D04D50496E4A6A49BE4A0640D0B0
:1009F00049C047F04AC048F0D89047364836D890AA
:100A000047364836A20E4724F66E5B0E4820F76E36
:100A10000900F5CF14F00900F5CF15F00900F5CF66
:100A200016F00A00F5CF17F051C010F052C011F0C7
:100A300053C012F054C013F05DEC25F010C01EF04E
:100A400011C01FF012C020F013C021F00A0E226E58
:100A5000000E236E000E246E000E256EABEC25F00A
:100A60001E50300F4D6E4DC03DF015EC28F000D0FB
:100A70004906D8A04A064928D8B44A28D8A401D0A3
:100A800001D0B6D74EA601D001D01DD05050800A5B
:100A9000800F010ED8B44F5CD8A001D001D013D084
:100AA00000D0476E200E3D6E475015EC28F04F06E3
:100AB000D8A0500650504F10D8A401D001D0F1D783
:100AC00002D001D000D03FC0F6FF40C0F7FF3F4A40
:100AD000402A0800F5CF4DF04D6601D001D074D505
:100AE00001D000D01200366E000E506E3650366EB9
:100AF000000E4F6E3650366E000E4E6E3650000EA3
:100B0000176E3E0E166EE10E366E000E376E36C054
:100B100018F037C019F0000E1B6E080E1A6E69EC43
:100B200027F0000E176E510E166EE90E366E000E8F
:100B3000376E36C018F037C019F0000E1B6E020E6B
:100B40001A6E69EC27F0366E000E536E3650030EA7
:100B5000536401D001D002D0B5D0B4D05350010DB0
:100B60004A0EF324D96E000EF420DA6E5350020DB3
:100B7000010EF326000EF4223E0EF324E16E000E69
:100B8000F420E26EE750366E5250000836245124AD
:100B9000DF6E5350010D460EF324D96E000EF42083
:100BA000DA6E5350020D3E0EF324E16E000EF42077
:100BB000E26EE750000852245124DF6E532A030EE0
:100BC000536401D001D0CAD77DD07CD0366E000EE0
:100BD000536E3650030E536401D001D002D056D06C
:100BE00055D05350010D460EF324D96E000EF4205B
:100BF000DA6EDF50366E36AE01D001D002D0B0D101
:100C0000AFD15350010D4A0EF324D96E000EF420DB
:100C1000DA6EDF50366E36505024376EE86AD8B040
:100C2000E82A36BEE80650BEE806386E38AE01D077
:100C300001D005D0366E010E4F6E365000D05350A5
:100C4000010D4A0EF324D96E000EF420DA6EDF5047
:100C5000366E36505024376EE86AD8B0E82A36BE71
:100C6000E80650BEE806386E3850800A800F0A0E3B
:100C7000D8B4375CD8A001D001D002D04F6800D0E2
:100C8000532A030E536401D001D0ABD74F6601D075
:100C900001D005D0366E010E4E6E365000D04F504A
:100CA00050265050800A7D0FD8B001D001D00FD00F
:100CB0005050800A820FD8B001D001D003D007D0A5
:100CC00006D000D04E50D8B401D001D07FD74E66A8
:100CD00001D001D002D044D143D1366E000E536E04
:100CE0003650030E536401D001D002D012D011D07F
:100CF0005350010D4A0EF324D96E000EF420DA6E23
:100D00005050DF26532A030E536401D001D0F0D790
:100D100000D0366E000E536E3650030E536401D071
:100D200001D002D071D070D05350010D4A0EF3247F
:100D3000D96E000EF420DA6EDF50366E36BE01D06A
:100D400001D00ED15350010D4A0EF324D96E000E7E
:100D5000F420DA6EDF50800A760FD8B001D001D0CF
:100D6000FFD05350010D460EF324D96E000EF4202F
:100D7000DA6EDF50366E36BE01D001D0F1D053505E
:100D8000010D460EF324D96E000EF420DA6EDF500A
:100D9000800A6C0FD8A001D001D002D0E1D0E0D001
:100DA0005350010D4A0EF324D96E000EF420DA6E72
:100DB000DF50366E3650160D0201000EF324376EEA
:100DC0000201020EF420386E5350010D460EF3243A
:100DD000D96E000EF420DA6EDF50396E3950010DF5
:100DE000F3503724D96EF4503820DA6EDF50D8B47F
:100DF00001D001D002D0B4D0B3D0532A030E536433
:100E000001D001D091D700D0505051260001000EE2
:100E1000176E0001E90E166E000E196E510E186E57
:100E2000000E1B6E020E1A6E69EC27F0366E000E75
:100E3000536E3650030E536401D001D002D086D0D9
:100E400085D05350010D4A0EF324D96E000EF420C4
:100E5000DA6E5350020D0001E10EF324E16E000141
:100E6000000EF420E26EDFCFE7FF5350010D460E77
:100E7000F324D96E000EF420DA6E5350020D0001F7
:100E8000E10EF324366E0001000EF420376E010EE1
:100E90003624E16E000E3720E26EDFCFE7FF5350BD
:100EA000020D3E0EF324D96E000EF420DA6EDF50F0
:100EB000366E376A363A373AF00E371636500F0B21
:100EC0003712F00E361636C03AF037C03BF05350AA
:100ED000020D010EF326000EF4223E0EF324D96E0D
:100EE000000EF420DA6EDF50366E376A361E371E7B
:100EF000364A372A363A373AF00E371636500F0B45
:100F00003712F00E3616300E36243C6E010E3720A6
:100F10003D6E3AC02CF03BC02DF03CC02EF03DC0E1
:100F20002FF0000E316E100E306E000E336E100E6C
:100F3000326E000E356E000E346EDBEC28F0532A54
:100F4000030E536401D001D07CD700D00001000E05
:100F50001D6E0001E10E1C6ED8C01EF0E3EC10F017
:100F60001200596E000E01010101906F5950596E27
:100F7000000E01010101936F5950596E000E0101DD
:100F80000101926F595021EE00F011EE84F00C0E29
:100F9000DECFE6FFE82EFCD7596E000E01010101FD
:100FA000916F5950000E2D6E000E2C6E000E2F6E9C
:100FB000000E2E6E000E316EF00E306E010E336E8E
:100FC000400E326E000E356E000E346EDBEC28F0F3
:100FD0007F0E236E590E226E596E020E246E5950EA
:100FE000000E266E000E256E000E286E030E276E74
:100FF0005A6E010E296E5A50FF0E2B6EFF0E2A6E8E
:10100000000E2D6E000E2C6ED7EC14F0000E0001B9
:101010000001C66F010E0001C56F000E0001000146
:10102000C86F140E0001C76F00010001FA690001CA
:10103000FB69000E00010001C46F000E0001C36FC8
:101040007F0E406E320E3F6E55C041F056C042F0EA
:1010500057C043F058C044F0DFEC02F07F0E236E1F
:10106000460E226E596E020E246E5950000E266EE8
:10107000000E256E000E286E250E276E5A6E010E8C
:10108000296E5A50FF0E2B6EFF0E2A6E000E2D6E2B
:10109000000E2C6ED7EC14F07F0E236E690E226EBC
:1010A000596E020E246E5950000E266E000E256EEB
:1010B000000E286E360E276E5A6E010E296E5A509B
:1010C000FF0E2B6EFF0E2A6E000E2D6E000E2C6E84
:1010D000D7EC14F07F0E236EB90E226E596E020EFD
:1010E000246E5950000E266E030E256E000E286EDB
:1010F000580E276E5A6E000E296E5A50FF0E2B6E38
:10110000FF0E2A6E000E2D6E000E2C6ED7EC14F022
:101110004AD165C010F0116A000E136E140E126EE3
:1011200009EC25F011501010D8A401D001D01DD029
:1011300001010101916701D001D00BD093C136F0BC
:1011400054EC28F0596E010E01010101916F5950C4
:101150000CD093C136F035EC28F0596E000E010129
:101160000101916F595001D000D0835000D083BC51
:1011700001D001D037D0706601D001D033D00B0E32
:1011800001010101936101D001D027D093C136F054
:1011900035EC28F0010101019351010D0101840E8C
:1011A000F324D96E0101010EF420DA6E010192C11F
:1011B000DFFF01010101932B010101019351010D99
:1011C0000101840EF324D96E0101010EF420DA6EC0
:1011D000DF5001010101926F00D0596E010E706E57
:1011E000595000D083AC01D001D00AD07050D8B48F
:1011F00001D001D005D0596E000E706E595000D04C
:1012000083B601D001D037D06E6601D001D033D083
:10121000010101019351D8B401D001D027D093C16D
:1012200036F035EC28F0010101019351010D010167
:10123000840EF324D96E0101010EF420DA6E01014F
:1012400092C1DFFF010101019307010101019351E7
:10125000010D0101840EF324D96E0101010EF42069
:10126000DA6EDF5001010101926F00D0596E010E5C
:101270006E6E595000D083A601D001D00AD06E50B6
:10128000D8B401D001D005D0596E000E6E6E595001
:1012900000D083BE01D001D052D06D6601D001D004
:1012A0004ED001010101922B300E0101010192612A
:1012B00001D001D007D0596E300E01010101926FAB
:1012C000595000D0410E01010101926101D001D0BD
:1012D0000ED0390E01010101926501D001D007D075
:1012E000596E410E01010101926F595000D05A0E02
:1012F00001010101926501D001D007D0596E000EA5
:1013000001010101926F595000D093C13DF092C18B
:101310003EF0F4EC27F0010101019351010D0101B0
:10132000840EF324D96E0101010EF420DA6E01015E
:1013300092C1DFFF596E010E6D6E595000D083AE21
:1013400001D001D00AD06D50D8B401D001D005D061
:10135000596E000E6D6E595000D083B201D001D08D
:1013600022D06C6601D001D01ED0596E010E6C6E79
:10137000595055C020F056C021F057C022F058C037
:1013800023F00101010E256E0101840E246E30EC64
:101390001AF0B3EC21F0596E010E01010101906FBA
:1013A000595001D000D0010101019051D8B401D0B1
:1013B00001D0AFD600D012007D0E6224F66E580E1A
:1013C0006320F76E0800F550330AD8A401D001D08D
:1013D0001FD0010E6224106E000E6320116E7D0E70
:1013E0001024F66E580E1120F76E0800F550320AE0
:1013F000D8A401D001D00CD0000E00010001B86FBC
:10140000200E0001B76F020E6226000E632295D0F7
:101410007D0E6224F66E580E6320F76E0800F550BC
:10142000310AD8A401D001D01FD0010E6224106E61
:10143000000E6320116E7D0E1024F66E580E1120E2
:10144000F76E0800F550360AD8A401D001D00CD0B0
:10145000000E00010001B86F100E0001B76F020E00
:101460006226000E632269D07D0E6224F66E580E4D
:101470006320F76E0800F550380AD8A401D001D0D7
:101480000AD0000E00010001B86F080E0001B76F0E
:10149000624A632A52D07D0E6224F66E580E632093
:1014A000F76E0800F550340AD8A401D001D00AD054
:1014B000000E00010001B86F040E0001B76F624A10
:1014C000632A3BD07D0E6224F66E580E6320F76EC1
:1014D0000800F550320AD8A401D001D00AD0000E7D
:1014E00000010001B86F020E0001B76F624A632A63
:1014F00024D07D0E6224F66E580E6320F76E08002D
:10150000F550310AD8A401D001D00AD0000E000154
:101510000001B86F010E0001B76F624A632A0DD057
:10152000000E00010001B86F040E0001B76F05D076
:1015300004D003D002D001D000D0010E6224106E7E
:10154000000E6320116E7D0E1024F66E580E1120D1
:10155000F76E0800F550230AD8A401D001D08AD034
:101560002AD029D0100E00010001BA6FC40E00016C
:10157000B96F39D00E0E00010001BA6F1A0E0001CA
:10158000B96F31D00C0E00010001BA6F8F0E00014F
:10159000B96F29D00A0E00010001BA6F8F0E000149
:1015A000B96F21D0090E00010001BA6F6A0E000167
:1015B000B96F19D018D07D0E6224F66E580E6320D4
:1015C000F76E0800F550610AD8B4CCD7020AD8B437
:1015D000D1D7070AD8B4D6D7020AD8B4DBD7010AC4
:1015E000D8B4E0D700D0020E6226000E632266D087
:1015F00041D0110E00010001BA6FC10E0001B96F98
:101600005AD00F0E00010001BA6FD00E0001B96F61
:1016100052D00E0E00010001BA6FF00E0001B96F3A
:101620004AD00D0E00010001BA6F4F0E0001B96FD4
:1016300042D00B0E00010001BA6FDB0E0001B96F42
:101640003AD00B0E00010001BA6F310E0001B96FE4
:1016500032D0090E00010001BA6FF70E0001B96F18
:101660002AD0000E00010001BA6F000E0001B96F10
:1016700022D021D07D0E6224F66E580E6320F76EC4
:101680000800F550610AD8B4B4D7030AD8B4B9D762
:10169000010AD8B4BED7070AD8B4C3D7010AD8B450
:1016A000C8D7030AD8B4CDD7010AD8B4D2D7170AFD
:1016B000D8B4D7D700D0624A632A00D07D0E622406
:1016C000F66E580E6320F76E0800F5502E0AD8A467
:1016D00001D001D00AD0800E00010001B727000E12
:1016E0000001B823624A632A00D07D0E6224F66EA0
:1016F000580E6320F76E0800F550340AD8A401D0C4
:1017000001D007D0106E040E6A6E1050624A632A30
:101710003FD07D0E6224F66E580E6320F76E0800EF
:10172000F550350AD8A401D001D007D0106E050EAF
:101730006A6E1050624A632A2BD07D0E6224F66EC8
:10174000580E6320F76E0800F550360AD8A401D071
:1017500001D007D0106E060E6A6E1050624A632ADE
:1017600017D07D0E6224F66E580E6320F76E0800C7
:10177000F550370AD8A401D001D00AD0106E070E58
:101780006A6E1050624A632A03D002D001D000D0A2
:101790007D0E6224F66E580E6320F76E0800F55039
:1017A0002E0AD8A401D001D00AD0800E0001000179
:1017B000B727000E0001B823624A632A00D07D0ECD
:1017C0006224F66E580E6320F76E0800F5502C0A5E
:1017D000D8B401D001D005D0106E000E686E105044
:1017E00000D0624A632A1200100E946E800EC76EFB
:1017F000300EC66E000EF26E000E9E6E809205ECEC
:1018000027F0000E196E030E186E000E1B6E010EEF
:101810001A6E2AEC29F0000E196E3A0E186E000EA0
:101820001B6E010E1A6E2AEC29F0000E196E240EA2
:10183000186E000E1B6E7B0E1A6E2AEC29F0000E3D
:10184000196E250E186E000E1B6E3B0E1A6E2AECDA
:1018500029F0000E196E260E186E000E1B6E340E47
:101860001A6E2AEC29F0000E196E270E186E000E63
:101870001B6E040E1A6E2AEC29F0000E196E520E21
:10188000186E000E1B6E250E1A6E2AEC29F0000E43
:10189000196E530E186E000E1B6E330E1A6E2AEC64
:1018A00029F0000E196E610E186E000E1B6E1C0ED4
:1018B0001A6E2AEC29F0000E196E620E186E000ED8
:1018C0001B6E2C0E1A6E2AEC29F0000E196E630E98
:1018D000186E000E1B6E220E1A6E2AEC29F0000EF6
:1018E000196E640E186E000E1B6E270E1A6E2AEC0F
:1018F00029F0000E196E650E186E000E1B6E140E88
:101900001A6E2AEC29F0000E196E660E186E000E83
:101910001B6E100E1A6E2AEC29F0000E196E2E0E98
:10192000186E000E1B6E2D0E1A6E2AEC29F0000E9A
:10193000196E190E186E000E1B6E000E1A6E2AEC30
:1019400029F0000E196E1A0E186E100E1B6E000E86
:101950001A6E2AEC29F0000E196E1B0E186E000E7E
:101960001B6E230E1A6E2AEC29F0000E196E1C0E47
:10197000186E0C0E1B6E010E1A6E2AEC29F0000E6A
:10198000196E1D0E186E000E1B6E000E1A6E2AECDC
:1019900029F0000E196E1E0E186E000E1B6E090E39
:1019A0001A6E2AEC29F0000E196E1F0E186E000E2A
:1019B0001B6E350E1A6E2AEC29F0000E196E200EE1
:1019C000186E000E1B6E150E1A6E2AEC29F0000E12
:1019D000196E180E186E1E0E1B6E7B0E1A6E2AECF8
:1019E00029F0000E196E080E186E000E1B6E000E08
:1019F0001A6E2AEC29F0000E196E090E186E000EF0
:101A00001B6EEF0E1A6E2AEC29F0000E196E0A0EEC
:101A1000186E000E1B6E000E1A6E2AEC29F0000ED6
:101A2000196E0B0E186E010E1B6E3F0E1A6E2AEC0D
:101A300029F0000E196E290E186E000E1B6E000E96
:101A40001A6E2AEC29F0000E196E2A0E186E000E7E
:101A50001B6E000E1A6E2AEC29F0000E196E2B0E6A
:101A6000186E000E1B6EEF0E1A6E2AEC29F0000E97
:101A7000196E2C0E186E010E1B6E3F0E1A6E2AEC9C
:101A800029F0000E196E320E186E000E1B6E020E3B
:101A90001A6E2AEC29F0000E196E330E186E000E25
:101AA0001B6E000E1A6E2AEC29F0000E196E370E0E
:101AB000186E000E1B6E000E1A6E2AEC29F0000E36
:101AC000196E3B0E186E000E1B6E010E1A6E2AEC7C
:101AD00029F0000E196E040E186E000E1B6E000E1B
:101AE0001A6E2AEC29F0000E196E050E186E000E03
:101AF0001B6E100E1A6E2AEC29F0000E196E010EE4
:101B0000186E000E1B6E000E1A6E2AEC29F0000EE5
:101B1000196E000E186E000E1B6E000E1A6E2AEC67
:101B200029F08094000E176E0E0E166E05EC29F04B
:101B30008084000E1D6E000E1C6EF00E1C5C000EEC
:101B40001D58D8A001D001D002D02AD029D0000E33
:101B50001F6E000E1E6E400E1E5C010E1F58D8A098
:101B600001D001D002D012D011D0000E176E000E9D
:101B7000166E05EC29F01E4A1F2A400E1E5C010E4F
:101B80001F58D8A001D001D0F0D700D01C4A1D2A80
:101B9000F00E1C5C000E1D58D8A001D001D0D7D784
:101BA00080821200000E2D6EA30E2C6E000E2F6E82
:101BB000690E2E6E000E316E480E306E000E336EC2
:101BC000280E326E000E356E000E346EDBEC28F0FF
:101BD0008092386E000E4B6E3850030E4B6401D06D
:101BE00001D002D067D166D14B50020D170EF326FB
:101BF000000EF422F3503624386EF4503720396E3C
:101C000038C0F6FF39C0F7FF0800F5CF3AF0A30E51
:101C10003A24466E476A000E47224B50020D170EBB
:101C2000F326000EF422F3503624386EF450372099
:101C3000396E010E3826000E392238C0F6FF39C041
:101C4000F7FF0800F5CF3AF06D0E3A24486E496A66
:101C5000000E4922000E196E080E186E46C01AF0CA
:101C600047C01BF02AEC29F0000E196E0A0E186E00
:101C700048C01AF049C01BF02AEC29F0000E196E7A
:101C8000090E186E0F0E46241A6E000E47201B6EAA
:101C90002AEC29F0000E196E0B0E186E0F0E482458
:101CA0001A6E000E49201B6E2AEC29F0000E196EE8
:101CB000050E186E000E1B6E100E1A6E2AEC29F01F
:101CC0008094000E176E0E0E166E05EC29F08084BF
:101CD000386E000E4A6E38504A28D8A401D001D080
:101CE00002D077D076D04A50010D040E3624386EDB
:101CF000000E3720396E38C0F6FF39C0F7FF0800F4
:101D0000F5CF3AF0FF0E3A24106E116AFF0E112241
:101D1000000E136E1F0E126E73EC28F0020E1026CA
:101D2000000E1122F90E1024F66E7C0E1120F76EB3
:101D30000900F5CF3BF00900F5CF3CF0F3503B2410
:101D40003D6EF4503C203E6E3DC0F6FF3EC0F7FFB6
:101D50000800F550020D040E36243F6E000E3720A9
:101D6000406E3FC0F6FF40C0F7FF0800F5CF41F0DE
:101D7000FF0E4124106E116AFF0E1122000E136E29
:101D80001F0E126E73EC28F0F90E1024F66E7C0E06
:101D90001120F76E0900F5CF42F00900F5CF43F0AE
:101DA000F3504224446EF4504320456E44C0F6FF85
:101DB00045C0F7FF0900F5CF16F00A00F5CF17F080
:101DC00005EC29F04A2A4A28D8A401D001D08BD7A3
:101DD00000D0040E3624386E000E3720396E38C01D
:101DE000F6FF39C0F7FF0800F5CF3AF0FF0E3A24AE
:101DF000106E116AFF0E1122000E136E1F0E126E6E
:101E000073EC28F0020E1026000E1122F90E102499
:101E1000F66E7C0E1120F76E0900F5CF3BF009003D
:101E2000F5CF3CF0FF0E3B26000E3C223BC0F6FFF8
:101E30003CC0F7FF0800F550020D040E36243D6E3D
:101E4000000E37203E6E3DC0F6FF3EC0F7FF080093
:101E5000F5CF3FF0FF0E3F24106E116AFF0E1122E6
:101E6000000E136E1F0E126E73EC28F0F90E102484
:101E7000F66E7C0E1120F76E0900F5CF40F00900D8
:101E8000F5CF41F0F3504024426EF4504120436EB0
:101E900042C0F6FF43C0F7FF0900F5CF16F00A0075
:101EA000F5CF17F005EC29F04B2A030E4B6401D057
:101EB00001D09AD680821200366E000E426E3650E5
:101EC000366E000E446E3650120E446401D001D0BE
:101ED00002D049D048D0366E000E406E3650366E75
:101EE000000E436E3650090E436401D001D002D07B
:101EF00022D021D04350160D0201000EF324366E7D
:101F00000201020EF420376E4450010DF3503624C6
:101F1000D96EF4503720DA6EDF50D8A401D001D04A
:101F200002D009D008D0402A432A090E436401D0C8
:101F300001D0E0D700D040500A0AD8A401D001D087
:101F40000CD04250010D3C0EF324D96E000EF4204B
:101F5000DA6E44C0DFFF422A00D0442A120E4464E5
:101F600001D001D0B8D7426601D001D003D0000E15
:101F700029D128D1366E000E436E365032D0366EDF
:101F8000000E446E3650090E446401D001D002D0D8
:101F900026D025D04450160D0201000EF324366ED3
:101FA0000201020EF420376E4350010D3C0EF32463
:101FB000D96E000EF420DA6EDF50386E3850010D05
:101FC000F3503624D96EF4503720DA6E000EDF6EEF
:101FD000442A090E446401D001D0DCD700D0432A42
:101FE00000D04250435CD8A001D001D0C8D700D067
:101FF000366E000E436E365070D04350010D3C0ECD
:10200000F324D96E000EF420DA6EDF50446E120E07
:10201000446401D001D002D045D044D0366E000EC9
:10202000416E3650090E416401D001D002D033D048
:1020300032D04150160D4450366E376A010E3626A6
:10204000000E37220201000E3624386E0201020E05
:102050003720396EF3503824D96EF4503920DA6EB7
:102060004150160D0201000EF3243A6E0201020ED9
:10207000F4203B6E4450010DF3503A24E16EF450CD
:102080003B20E26EDFCFE7FF412A090E416401D019
:1020900001D0CFD700D0442A120E446401D001D021
:1020A000BDD700D0030E436001D001D014D043C08F
:1020B00036F0010E36264350376E386A010E372649
:1020C000000E38223C0E3724D96E000E3820DA6E0E
:1020D0003650DF5E00D0432A00D04250435CD8A087
:1020E00001D001D08AD700D0000E2D6E000E2C6ECC
:1020F000000E2F6E000E2E6E000E316EA00E306E92
:10210000010E336E400E326E000E356E000E346ED0
:10211000DBEC28F0366E000E436E3650090E436439
:1021200001D001D002D04CD04BD0366E000E446EA0
:102130003650130E446401D001D002D03AD039D0C9
:102140004350160D0201000EF324366E0201020EFA
:10215000F420376E4450010DF3503624D96EF450FC
:102160003720DA6EDF50D8B401D001D01BD043C085
:102170001CF044C01DF04350160D0201000EF32464
:10218000366E0201020EF420376E4450010DF350FA
:102190003624D96EF4503720DA6EDF501E6E1DECF7
:1021A00016F000D0442A130E446401D001D0C8D7E1
:1021B00000D0432A090E436401D001D0B6D700D025
:1021C000425000D0120080921F6E000E2C6E1F50E5
:1021D000030E2C6401D001D002D04FD14ED12C502F
:1021E000020DF3501C241F6EF4501D20206E010EB2
:1021F0001F24D96E000E2020DA6E130EDF6401D08A
:1022000001D002D034D133D12C50020DF3501C2414
:10221000D96EF4501D20DA6EDF501F6E206A1F3A0F
:10222000203AF00E20161F500F0B2012F00E1F1632
:102230001FC027F020C028F02C50020DF3501C24A2
:102240001F6EF4501D20206E010E1F24D96E000E4B
:102250002020DA6EDF50216E226A211E221E214AC2
:10226000222A213A223AF00E221621500F0B221276
:10227000F00E2116300E2124296E010E22202A6E26
:10228000000E196E080E186E27C01AF028C01BF039
:102290002AEC29F0000E196E0A0E186E29C01AF0E9
:1022A0002AC01BF02AEC29F0000E196E090E186ED8
:1022B0000F0E27241A6E000E28201B6E2AEC29F020
:1022C000000E196E0B0E186E0F0E29241A6E000EDA
:1022D0002A201B6E2AEC29F0000E196E050E186ECE
:1022E000000E1B6E100E1A6E2AEC29F08094000E60
:1022F000176E0E0E166E05EC29F080841F6E000E10
:102300002B6E1F502B28D8A401D001D002D05DD055
:102310005CD02B50010DFF0E1E24106E116AFF0EB3
:102320001122000E136E1F0E126E73EC28F0020EB7
:102330001026000E1122F90E1024F66E7C0E1120CC
:10234000F76E0900F5CF1FF00900F5CF20F0F3502C
:102350001F24216EF4502020226E21C0F6FF22C0DF
:10236000F7FF0800F550020DFF0E1E24106E116AD3
:10237000FF0E1122000E136E1F0E126E73EC28F06A
:10238000F90E1024F66E7C0E1120F76E0900F5CFC1
:1023900023F00900F5CF24F0F3502324256EF450E8
:1023A0002420266E25C0F6FF26C0F7FF0900F5CFD2
:1023B00016F00A00F5CF17F005EC29F02B2A2B2890
:1023C000D8A401D001D0A5D700D0FF0E1E24106ED6
:1023D000116AFF0E1122000E136E1F0E126E73ECA7
:1023E00028F0020E1026000E1122F90E1024F66EAF
:1023F0007C0E1120F76E0900F5CF1FF00900F5CF14
:1024000020F0FF0E1F26000E20221FC0F6FF20C066
:10241000F7FF0800F550020DFF0E1E24106E116A22
:10242000FF0E1122000E136E1F0E126E73EC28F0B9
:10243000F90E1024F66E7C0E1120F76E0900F5CF10
:1024400021F00900F5CF22F0F3502124236EF4503F
:102450002220246E23C0F6FF24C0F7FF0900F5CF29
:1024600016F00A00F5CF17F005EC29F000D02C2A61
:10247000030E2C6401D001D0B2D680821200556EBA
:10248000000E00010001F76F5550556E000E00015F
:102490000001CC6F5550000E00010001F36F000EDB
:1024A0000001F46F000E0001F56F000E0001F66FE1
:1024B000000E00010001B66F000E0001B56F556EF1
:1024C000000E676E5550000E636E000E626E000EB9
:1024D00000010001B46F140E0001B36F556E300E91
:1024E000666E5550556E000E00010001CE6F5550BE
:1024F00066C0CDF0556E000E656E5550556E000EDF
:1025000000010001D26F5550556E000E0001000110
:10251000D16F5550BB0E00010001C46FBB0E00010E
:10252000C36F000E00010001FB6F000E0001FA6F87
:10253000BFC010F0C0C011F018EC29F062EC26F01A
:10254000000E2D6E000E2C6E000E2F6E000E2E6EE5
:10255000000E316EA00E306E010E336E400E326EE4
:10256000000E356E000E346EDBEC28F0000E2D6E82
:10257000A00E2C6E000E2F6E000E2E6E000E316E11
:10258000500E306E010E336E400E326EBB0E356E45
:10259000BB0E346EDBEC28F07F0E236EE20E226E53
:1025A000556E020E246E5550000E266EA30E256E3B
:1025B000000E286E030E276E566E000E296E5650C2
:1025C000000E2B6E000E2A6EBB0E2D6EBB0E2C6EF7
:1025D000D7EC14F0000E00010001C66FA30E00013D
:1025E000C56F000E00010001C86F140E0001C76F17
:1025F0007F0E406EF70E3F6EF3C041F0F4C042F024
:10260000F5C043F0F6C044F0DFEC02F07F0E236E1D
:10261000F00E226E556E020E246E5550000E266E80
:10262000A30E256E000E286E250E276E566E000E28
:10263000296E5650000E2B6E000E2A6EBB0E2D6EAC
:10264000BB0E2C6ED7EC14F0000E00010001C66F1B
:10265000A30E0001C56F000E00010001C86F360E09
:102660000001C76F7F0E406EF70E3F6EB5C041F0A0
:10267000B6C042F0DFEC02F07F0E236EE90E226E50
:10268000556E020E246E5550000E266EA30E256E5A
:10269000000E286E470E276E566E000E296E56509D
:1026A000000E2B6E000E2A6EBB0E2D6EBB0E2C6E16
:1026B000D7EC14F0000E00010001C66FA30E00015C
:1026C000C56F000E00010001C86F580E0001C76FF2
:1026D0007F0E406EF70E3F6E67C041F0426ADFEC3E
:1026E00002F0AFEC24F018EC23F0FF0E6B24106E18
:1026F000116AFF0E1122000E136E1F0E126E73EC84
:1027000028F0F90E1024576E7C0E1120586E57C019
:1027100036F058C037F0D2EC0DF01200176E000EF4
:102720001F6E175036D1176E000E1F6E1750030E16
:102730001F6401D001D002D037D136D11F50020D15
:102740000001E10EF324D96E0001000EF420DA6ED0
:10275000DF50D8A401D001D003D0010E27D126D15B
:102760001F50020D0001E10EF324D96E0001000E8E
:10277000F420DA6EDF50176EFF0E1724106E116A08
:10278000FF0E1122000E136E160E126E73EC28F05F
:102790000201000E1024186E0201020E1120196EA3
:1027A0001F50020D0001E10EF3241A6E0001000E0D
:1027B000F4201B6E010E1A24D96E000E1B20DA6E57
:1027C000DF501C6E1C50010DF3501824D96EF450CC
:1027D0001920DA6EDF50D8B401D001D003D0010E39
:1027E000E5D0E4D01F2A030E1F6401D001D0A6D784
:1027F000DBD0DAD0176E000E1F6E1750030E1F6469
:1028000001D001D002D0D0D0CFD01F50020D000196
:10281000E10EF324D96E0001000EF420DA6E090EE9
:10282000DF6201D001D003D0010EC0D0BFD01F5055
:10283000020D0001E10EF324D96E0001000EF42018
:10284000DA6EDF50176E010E1724106E116A000E3B
:102850001122000E136E160E126E73EC28F0020198
:10286000000E1024186E0201020E1120196E1F5066
:10287000020D0001E10EF3241A6E0001000EF42097
:102880001B6E010E1A24D96E000E1B20DA6EDF506B
:102890001C6E1C50010DF3501824D96EF4501920F1
:1028A000DA6EDF50D8B401D001D003D0010E7ED053
:1028B0007DD01F2A030E1F6401D001D0A6D774D08B
:1028C00073D0176E000E1F6E1750030E1F6401D0D9
:1028D00001D002D069D068D01F50020D0001E10E76
:1028E000F324176E0001000EF420186E010E172459
:1028F000D96E000E1820DA6EDF50D8A401D001D0B6
:1029000003D0010E53D052D01F50020D0001E10E32
:10291000F324176E0001000EF420186E010E172428
:10292000D96E000E1820DA6EDF50196EFF0E1924D2
:102930001A6E1B6AFF0E1B220201000E1A241C6E67
:102940000201020E1B201D6E1F50020D0001E10E40
:10295000F324D96E0001000EF420DA6EDF501E6EF3
:102960001E50160DF3501C24D96EF4501D20DA6E43
:10297000DF50D8B401D001D003D0010E17D016D04B
:102980001F2A030E1F6401D001D0A6D70DD00CD092
:102990000BD01650000AD8B4C6D6010AD8B42AD72C
:1029A000030AD8B48ED700D0000E00D012002E6ECD
:1029B000000E3A6E2E502AD000D0720E376EF20EF4
:1029C000366E2E6E050E416E2E502E6E070E386E30
:1029D0002E502E6E010E3B6E2E502E6E050E396E51
:1029E0002E506C0E376E320E366E2E6E0A0E416E03
:1029F0002E502E6E0E0E386E2E502E6E020E3B6E28
:102A00002E502E6E120E396E2E500BD02450000A0E
:102A1000D8B4D3D7010AD8B4D0D7030AD8B4E1D7F1
:102A200000D02904D8A401D001D03BD02E6E000ED6
:102A3000426E2E5003D03A2A422A00D04250010D55
:102A4000F35022242E6EF45023202F6E2EC0F6FF5A
:102A50002FC0F7FF0800F5500009D8A401D001D01D
:102A6000EAD700D03AC012F0136A41503B24106EEE
:102A7000116A113673EC28F0101E111E104A112A2B
:102A8000F00E1024166E000E1120176E000E196E37
:102A9000020E186E51EC24F016C025F017C026F077
:102AA00000D02E6E000E426E2E50B2D02E6E080E4A
:102AB0003C6E2E50000E356E000E346E000E406ED1
:102AC000000E3F6E8CD0000E3E6E000E3D6E78D034
:102AD0003C50080AD8A401D001D032D02E6E000E8E
:102AE0003C6E2E504250010DF35022242E6EF450B5
:102AF00023202F6E2EC0F6FF2FC0F7FF0800F5CF62
:102B000030F0E00E3024106E116AFF0E112239C031
:102B100012F0136A73EC28F034501026355011224D
:102B200010503624316E11503720326E31C0F6FF0E
:102B300032C0F7FF0800F5CF33F0344A352A00D011
:102B40003CC02EF0010E2F6E306A2E2A03D0D89092
:102B50002F3630362E2EFBD733502F16000E301660
:102B600030502F10D8A401D001D013D025503D24CF
:102B70001C6E26503E201D6E27503F241E6E28508E
:102B800040201F6E2CC020F02DC021F098EC27F0C3
:102B900013D025503D241C6E26503E201D6E27501C
:102BA0003F241E6E285040201F6E2AC020F02BC0EC
:102BB00021F098EC27F000D03C2A3D4A3E2A00D074
:102BC00041502E6E2F6A2E503D5C2F503E58D8A09B
:102BD00001D001D07DD700D03F4A402A00D03850E4
:102BE0002E6E2F6A2E503F5C2F504058D8A001D037
:102BF00001D069D700D03B5041C02EF02F6A2E265D
:102C0000000E2F222E5025262F502622422A00D099
:102C10004250010DF35022242E6EF45023202F6ECB
:102C20002EC0F6FF2FC0F7FF0800F5500009D8A40A
:102C300001D001D03BD700D012008092130E1D644A
:102C400001D001D002D01ED11DD11C501F6E206AB0
:102C50001F3A203AF00E20161F500F0B2012F00ED4
:102C60001F161FC027F020C028F01D501F6E206ABD
:102C70001F1E201E1F4A202A1F3A203AF00E20163F
:102C80001F500F0B2012F00E1F16300E1F24296E3E
:102C9000010E20202A6E000E196E080E186E27C035
:102CA0001AF028C01BF02AEC29F0000E196E0A0E4B
:102CB000186E29C01AF02AC01BF02AEC29F0000E69
:102CC000196E090E186E0F0E27241A6E000E28209A
:102CD0001B6E2AEC29F0000E196E0B0E186E0F0EEB
:102CE00029241A6E000E2A201B6E2AEC29F0000EF1
:102CF000196E050E186E000E1B6E100E1A6E2AEC61
:102D000029F08094000E176E0E0E166E05EC29F059
:102D100080841F6E000E2B6E1F502B28D8A401D06C
:102D200001D002D05DD05CD02B50010DFF0E1E24CF
:102D3000106E116AFF0E1122000E136E1F0E126E1E
:102D400073EC28F0020E1026000E1122F90E10244A
:102D5000F66E7C0E1120F76E0900F5CF1FF009000A
:102D6000F5CF20F0F3501F24216EF4502020226E66
:102D700021C0F6FF22C0F7FF0800F550020DFF0E3C
:102D80001E24106E116AFF0E1122000E136E1F0E0C
:102D9000126E73EC28F0F90E1024F66E7C0E1120E2
:102DA000F76E0900F5CF23F00900F5CF24F0F350BA
:102DB0002324256EF4502420266E25C0F6FF26C05D
:102DC000F7FF0900F5CF16F00A00F5CF17F005EC74
:102DD00029F02B2A2B28D8A401D001D0A5D700D0C8
:102DE000FF0E1E24106E116AFF0E1122000E136ECC
:102DF0001F0E126E73EC28F0020E1026000E112228
:102E0000F90E1024F66E7C0E1120F76E0900F5CF36
:102E10001FF00900F5CF20F0FF0E1F26000E202224
:102E20001FC0F6FF20C0F7FF0800F550020DFF0E8F
:102E30001E24106E116AFF0E1122000E136E1F0E5B
:102E4000126E73EC28F0F90E1024F66E7C0E112031
:102E5000F76E0900F5CF21F00900F5CF22F0F3500D
:102E60002124236EF4502220246E23C0F6FF24C0B8
:102E7000F7FF0900F5CF16F00A00F5CF17F005ECC3
:102E800029F0808212000600EACF05F0E1CF06F0BB
:102E9000E2CF07F0D9CF08F0DACF09F0F3CF0AF08C
:102EA000F4CF0BF0F6CF0CF0F7CF0DF0F8CF0EF01B
:102EB000F5CF0FF0F2AA01D001D063D0F2A401D077
:102EC00001D05FD0652A00010001CD07000100019B
:102ED000CD6701D001D018D000010001CE51D8B487
:102EE00001D001D007D0016E010E00010001CD6FAD
:102EF000015003D066C0CDF000D0016E010E00017C
:102F00000001D26F015000D065503C0AD8A401D016
:102F100001D005D0016E000E656E015000D0000199
:102F20000001F751D8B401D001D005D00001000153
:102F3000BF4BC02B00D083A601D001D005D083BCED
:102F400001D001D018D000D000010001CB07000152
:102F50000001CB6701D001D00ED0016E010E00013F
:102F60000001D16F0150016E060E00010001CB6F10
:102F7000015001D000D0FE0ED76EFC0ED66EF2943A
:102F800000D09DA001D001D038D09EA001D001D0AA
:102F900034D0F8C0CEFFF9C0CFFF00010001C2510C
:102FA000C111D8B401D001D013D0100E000100011E
:102FB000C15D000E0001C259D8A001D001D008D0D7
:102FC000100E00010001C15F000E0001C25B0DD0B8
:102FD000016E000E00010001CF6F0150016E010E65
:102FE00000010001D06F015000D0686601D001D00F
:102FF00003D0CD90B190A1929E90A0A201D001D01B
:1030000020D0A1A201D001D01CD000010001CF51DD
:10301000D8B401D001D00ED081A201D002D0010ECF
:1030200001D0000E016E014681500118FD0B011800
:10303000816E01D08182BBC0B2FFBCC0B3FFA19240
:1030400000D00FC0F5FF0EC0F8FF0DC0F7FF0CC099
:10305000F6FF0BC0F4FF0AC0F3FF09C0DAFF08C097
:10306000D9FF07C0E2FF06C0E1FF05C0EAFF04C0C8
:10307000E9FF03C0FBFF02C0FAFF1100672A000E40
:103080002D6EA30E2C6E000E2F6E580E2E6E000E9F
:10309000316E4D0E306E000E336E0E0E326EBB0E64
:1030A000356EBB0E346EDBEC28F0000E0001000123
:1030B000C66FA30E0001C56F000E00010001C86FAE
:1030C000580E0001C76F7F0E406EF70E3F6E67C04F
:1030D00041F0426ADFEC02F067500A0D0A0EF32459
:1030E00000010001B36F000EF4200001B46F650E03
:1030F00000010001B35D000E0001B459D8A001D059
:1031000001D05FD0000E00010001B46F640E000119
:10311000B36F57D056D0556E2B0E666E5550A7D054
:10312000556E260E666E5550A2D0556E210E666EF7
:1031300055509DD0556E1C0E666E555098D0556EEC
:10314000170E666E555093D0556E120E666E555022
:103150008ED0556E0D0E666E555089D0556E080E88
:10316000666E555084D0556E060E666E55507FD0F3
:1031700001D000D0556E050E666E555078D001D046
:1031800000D0556E040E666E555071D001D000D03F
:10319000556E030E666E55506AD008D007D006D023
:1031A00005D004D003D002D001D000D0556E020E5D
:1031B000666E55505CD0556E010E666E555057D0F8
:1031C00056D06750010AD8B4A6D7030AD8B4A8D7F6
:1031D000010AD8B4AAD7070AD8B4ACD7010AD8B420
:1031E000AED7030AD8B4B0D7010AD8B4B2D70F0A01
:1031F000D8B4B4D7010AD8B4B6D7030AD8B4BAD76A
:10320000010AD8B4B7D7070AD8B4B4D7010AD8B4DA
:10321000B8D7030AD8B4B5D7010AD8B4B2D71F0AB1
:10322000D8B4B6D7010AD8B4B3D7030AD8B4B0D744
:10323000010AD8B4BBD7070AD8B4B8D7010AD8B4A2
:10324000B5D7030AD8B4B2D7010AD8B4AFD70F0A9A
:10325000D8B4ACD7010AD8B4A9D7030AD8B4A6D732
:10326000010AD8B4A3D7070AD8B4A0D7A4D71200AC
:10327000186E010E1F6E1850186E000E216E185039
:10328000090E216401D001D002D0E1D0E0D021505C
:10329000040D0001800EF324D96E0001000EF4200D
:1032A000DA6E000EDE6E000EDE6E000EDE6E000EBA
:1032B000DD6EDD52DD5221500C0D01010C0EF324A8
:1032C000106E0101010EF420116E000E136E000E3F
:1032D000126E000E156E0C0E146E92EC28F0186E25
:1032E000000E206E18500F0E206401D001D002D0C5
:1032F0005CD05BD02150100DF3502024A96EA69E07
:10330000A680040E206001D001D02FD02050080DDF
:10331000F3500008186E180E1826A850196E1A6A75
:10332000182A03D0D89019361A36182EFBD719C090
:103330001BF01AC01CF0000E1CBEFF0E1D6E1E6E90
:103340002150040D0001800EF324D96E0001000EFF
:10335000F420DA6E1B50DE121C50DE121D50DE12FD
:103360001E50DD12DD52DD5219D021500C0DFC0E25
:103370002024186E196AFF0E192201010C0E182460
:103380001A6E0101010E19201B6EF3501A24D96E1A
:10339000F4501B20DA6EA8CFDFFF00D0202A0F0EDA
:1033A000206401D001D0A6D700D02150040D000127
:1033B000800EF324D96E0001000EF420DA6EDECF09
:1033C00018F0DECF19F0DECF1AF0DECF1BF0182890
:1033D000D8B41928D8B41A28D8B41B28D8A401D036
:1033E00001D029D02150040D0001800EF324D96EA4
:1033F0000001000EF420DA6E000EDE6E000EDE6EAE
:10340000000EDE6E000EDD6EDD52DD5221500C0D21
:1034100001010C0EF324106E0101010EF420116E57
:10342000000E136E000E126E000E156E0C0E146E52
:1034300092EC28F005D0186E000E1F6E185000D0C8
:10344000212A090E216401D001D021D700D01F50BC
:10345000D8B401D001D003D0B3EC21F000D01200D9
:10346000266E000E2A6E2650266E090E2C6E2650F1
:103470002CAE01D001D002D02AD029D02C50040D7E
:103480000001800EF324D96E0001000EF420DA6EE4
:10349000DECF26F0DECF27F0DECF28F0DECF29F01A
:1034A0002650205C27502158285022582950235854
:1034B000D8B001D001D002D00AD009D0266E010EBA
:1034C0002A6E26502C062CAE01D001D0D7D72A6602
:1034D00001D001D002D0B5D0B4D0266E080E2B6E2C
:1034E000265058D02B50040D0001800EF324D96EC5
:1034F0000001000EF420DA6E2BC026F0276A26BEEB
:103500002706D89026362736D89026362736040E3A
:103510002626000E27220001800E2624E16E0001DF
:10352000000E2720E26EDECFE6FFDECFE6FFDECF25
:10353000E6FFDDCFE5FFE552E552010E2B24106ECC
:10354000E86AD8B0E82A2BBEE806116E000E136EAA
:103550000C0E126E73EC28F001010C0E1024166E86
:103560000101010E1120176E2B500C0D01010C0EE4
:10357000F324266E0101010EF420276E26C018F0F8
:1035800027C019F0000E1B6E0C0E1A6E69EC27F0A6
:103590002B0600D02CC026F0276A26BE2706010E77
:1035A0002626000E2722800E2BBE7F0E286E265068
:1035B0002B5C2750800A2858D8B001D001D092D770
:1035C00000D02CC026F0276A26BE2706D8902636C3
:1035D0002736D89026362736040E2626000E2722B8
:1035E0000001800E2624D96E0001000E2720DA6E1D
:1035F00020C0DEFF21C0DEFF22C0DEFF23C0DEFFD1
:10360000010E2C24106EE86AD8B0E82A2CBEE80619
:10361000116E000E136E0C0E126E73EC28F0010189
:103620000C0E1024166E0101010E1120176E24C01D
:1036300018F025C019F0000E1B6E0C0E1A6E69EC06
:1036400027F01200000E2D6E000E2C6E000E2F6E55
:10365000000E2E6E000E316EF00E306E010E336EC7
:10366000400E326E000E356E000E346EDBEC28F02C
:103670007F0E236E960E226E556E020E246E5550EE
:10368000000E266E000E256E000E286E010E276EAF
:10369000566E010E296E5650FF0E2B6EFF0E2A6ECF
:1036A000000E2D6E000E2C6ED7EC14F0F70E0001FC
:1036B0000001FB6F800E0001FA6F000E0001000197
:1036C000C46F000E0001C36F000E00010001C86F3F
:1036D000010E0001C76F556E000E596E5550090E50
:1036E000596401D001D002D066D065D05950040D84
:1036F0000001800EF324D96E0001000EF420DA6E72
:10370000DECF55F0DECF56F0DECF57F0DECF58F0EB
:103710005850551056105710D8A401D001D002D0DF
:103720004AD049D0000E00010001C66F030E00010F
:10373000C56F010E5924106E116A000E1122000E81
:10374000136E110E126E73EC28F0010E102400019E
:103750000001C76F000E11200001C86F7F0E406E80
:10376000AE0E3F6E59500C0D01010C0EF324556E38
:103770000101010EF420566E55C041F056C042F0D2
:103780005950040D0001800EF324D96E0001000E83
:10379000F420DA6EDECF43F0DECF44F0DECF45F02A
:1037A000DECF46F0DFEC02F0592A090E596401D051
:1037B00001D09CD700D0220E00010001C727000EC7
:1037C0000001C8237F0E236E790E226E556E020E05
:1037D000246E5550000E266E000E256EC7C027F0D1
:1037E000C8C028F0566E010E296E5650FF0E2B6E83
:1037F000FF0E2A6E000E2D6E000E2C6ED7EC14F00C
:1038000001D000F083B201D001D0FBD702D001D0AB
:1038100000F083A201D001D0FBD700D01200000E2F
:103820003B6E000E3A6E000E356E000E346ED7D031
:10383000000E336E000E326EC6D0D89032342E6E2B
:1038400033342F6E26502E24366E27502F20376E9D
:10385000D89034342E6E35342F6E28502E24386E86
:1038600029502F20396E36C01CF037C01DF038C0EB
:103870001EF039C01FF022C02EF023C02FF03A50A6
:103880002E263B502F222EC0F6FF2FC0F7FF080038
:10389000F550020DF3502424306EF4502520316E83
:1038A00030C0F6FF31C0F7FF0900F5CF20F00A0065
:1038B000F5CF21F098EC27F0010E36241C6E000E97
:1038C00037201D6E38C01EF039C01FF022C02EF008
:1038D00023C02FF03A502E263B502F222EC0F6FF49
:1038E0002FC0F7FF0800F550020DF3502424306E6E
:1038F000F4502520316E30C0F6FF31C0F7FF0900CB
:10390000F5CF20F00A00F5CF21F098EC27F036C073
:103910001CF037C01DF0010E38241E6E000E392039
:103920001F6E22C02EF023C02FF03A502E263B509F
:103930002F222EC0F6FF2FC0F7FF0800F550020D12
:10394000F3502424306EF4502520316E30C0F6FF41
:1039500031C0F7FF0900F5CF20F00A00F5CF21F0C4
:1039600098EC27F0010E36241C6E000E37201D6ED9
:10397000010E38241E6E000E39201F6E22C02EF05C
:1039800023C02FF03A502E263B502F222EC0F6FF98
:103990002FC0F7FF0800F550020DF3502424306EBD
:1039A000F4502520316E30C0F6FF31C0F7FF09001A
:1039B000F5CF20F00A00F5CF21F098EC27F03A4A35
:1039C0003B2A324A332A2A50325C2B503358D8A033
:1039D00001D001D032D700D0344A352A00D02C5043
:1039E000345C2D503558D8A001D001D021D700D05B
:1039F00012002AD000D0720E346EF20E336E2C6E8E
:103A0000050E356E2C502C6E070E366E2C502C6E1B
:103A1000010E2F6E2C502C6E050E376E2C506C0E36
:103A2000346E320E336E2C6E0A0E356E2C502C6EA8
:103A30000E0E366E2C502C6E020E2F6E2C502C6EED
:103A4000120E376E2C500BD02350000AD8B4D3D7A7
:103A5000010AD8B4D0D7030AD8B4E1D700D02C6E6D
:103A6000080E386E2C50000E326E000E316E000EB5
:103A70003C6E000E3B6E7DD0000E3A6E000E396E2D
:103A800069D03850080AD8A401D001D023D02C6EB8
:103A9000000E386E2C50E00E2224106E116AFF0EBC
:103AA000112237C012F0136A73EC28F0315010263F
:103AB00032501122105033242C6E115034202D6EB0
:103AC0002CC0F6FF2DC0F7FF0800F5CF30F0314ACB
:103AD000322A00D038C02CF0010E2D6E2E6A2C2A0E
:103AE00003D0D8902D362E362C2EFBD730502D16E5
:103AF000000E2E162E502D10D8A401D001D013D0B8
:103B0000245039241C6E25503A201D6E26503B242B
:103B10001E6E27503C201F6E2AC020F02BC021F0C3
:103B200098EC27F013D0245039241C6E25503A20ED
:103B30001D6E26503B241E6E27503C201F6E28C051
:103B400020F029C021F098EC27F000D0382A394A1B
:103B50003A2A00D035502C6E2D6A2C50395C2D50ED
:103B60003A58D8A001D001D08CD700D03B4A3C2A8B
:103B700000D036502C6E2D6A2C503B5C2D503C589A
:103B8000D8A001D001D078D700D01200436E000E2B
:103B9000456E4350436E010E00010001CC6F43504F
:103BA000D59E000E2D6EA30E2C6E000E2F6E690E8C
:103BB0002E6E000E316E480E306E000E336E280EE3
:103BC000326E000E356E000E346EDBEC28F083ECA6
:103BD00023F0436E130E496E435049AE01D001D01D
:103BE00002D078D077D0436E000E486E43504850D4
:103BF000800A760FD8A001D001D002D05ED05DD06F
:103C00004850160D0201000EF324436E0201020E0D
:103C1000F420446E4950010DF3504324D96EF45002
:103C20004420DA6EDF50D8B401D001D03DD049C075
:103C300043F0446A43BE4406431E441E434A442A9A
:103C4000433A443AF00E441643500F0B4412F00E20
:103C50004316300E4324466E010E4420476E000E7C
:103C60002D6E000E2C6E46C02EF047C02FF0000EB9
:103C7000316EA00E306E46C043F047C044F0431E84
:103C8000441E434A442A400E4324326E010E44200F
:103C9000336E000E356E000E346EDBEC28F0436E92
:103CA000010E456E435009D0482A4850800A760FCD
:103CB000D8A001D001D0A4D700D04550D8B401D0AD
:103CC00001D002D007D006D0490649AE01D001D0BC
:103CD0008AD700D07F0E236EC30E226E436E020E73
:103CE000246E4350000E266E210E256E000E286EA7
:103CF000990E276E446E000E296E4450FF0E2B6EF7
:103D0000FF0E2A6E000E2D6E000E2C6ED7EC14F0F6
:103D100012002ED018C0BBF019C0BCF037D0D8901C
:103D2000193000010001BC6F18300001BB6F2ED0AC
:103D300018C01DF019C01EF0D8901E321D32D89048
:103D40001E321D321DC0BBF01EC0BCF01FD018C0FB
:103D50001DF019C01EF0040E1F6ED8901E321D32C9
:103D60001F2EFBD71DC0BBF01EC0BCF00FD00ED065
:103D70001A50040AD8B4CED7010AD8B4D0D7030A4F
:103D8000D8B4D6D7010AD8B4E2D700D01D6E000E41
:103D900000010001CF6F1D5000010001BC51BB119B
:103DA000D8B401D001D00AD000010001BB1F00012E
:103DB000BC1FBBC0B2FFBCC0B3FF00D0000E116E71
:103DC000FF0E106E7F0E1B14126E000E1C14136E6D
:103DD0009BEC26F010C0C1F011C0C2F01BAE01D0A8
:103DE00001D016D0D89000010001C2311E6E000132
:103DF0000001C1311D6E00010001C1511D240001EF
:103E00000001C16F00010001C2511E200001C26FFC
:103E100000010001BC51BB11D8B401D001D007D0C2
:103E20001D6E010E00010001CF6F1D5000D0DCECB3
:103E300009F01200000E2D6E000E2C6E000E2F6E7B
:103E4000990E2E6E000E316EA00E306E000E336E87
:103E50000E0E326E000E356E000E346EDBEC28F066
:103E60004C6E000E506E4C50090E506401D001D0C3
:103E700002D04CD04BD04C6E000E516E4C50130EF5
:103E8000516401D001D002D03AD039D05050160D33
:103E90000201000EF3244C6E0201020EF4204D6E5E
:103EA0005150010DF3504C24D96EF4504D20DA6E70
:103EB000DF50D8B401D001D01BD050C01CF051C08D
:103EC0001DF05050160D0201000EF3244C6E02013D
:103ED000020EF4204D6E5150010DF3504C24D96E5A
:103EE000F4504D20DA6EDF501E6E1DEC16F000D03F
:103EF000512A130E516401D001D0C8D700D0502AE6
:103F0000090E506401D001D0B6D700D0FF0E6B244B
:103F1000106E116AFF0E1122000E136E1F0E126E2C
:103F200073EC28F0F90E10244E6E7C0E11204F6EAB
:103F30004EC036F04FC037F0D2EC0DF039EC29F01E
:103F40004C6E000E00010001CC6F4C50D58E12005B
:103F5000436E010E456E4350436E130E476E435041
:103F600047AE01D001D002D031D030D0436E000E28
:103F7000466E43504650800A760FD8A001D001D03B
:103F800002D01ED01DD04550080AD8A401D001D0BF
:103F900005D0436E010E456E435000D046C01CF064
:103FA00047C01DF045C01EF01DEC16F0452A462AFC
:103FB0004650800A760FD8A001D001D0E4D700D0B7
:103FC000470647AE01D001D0D1D700D0000E2D6EEC
:103FD000000E2C6E000E2F6E990E2E6E000E316E9E
:103FE000F00E306E000E336E0E0E326E000E356E19
:103FF000000E346EDBEC28F07F0E236EA20E226ED4
:10400000436E020E246E4350000E266E000E256E87
:10401000000E286E990E276E446E010E296E4450D4
:10402000FF0E2B6EFF0E2A6E000E2D6E000E2C6EF4
:10403000D7EC14F001D000F083B201D001D0FBD74F
:1040400002D001D000F083A201D001D0FBD700D074
:10405000436E010E00010001F76F4350120020C0B3
:1040600010F021C011F0126A136A22C014F023C0AC
:1040700015F0166A176A38EC27F010C028F011C046
:1040800029F012C02AF013C02BF08092000E196E96
:10409000080E186E1CC01AF01DC01BF02AEC29F087
:1040A000000E196E0A0E186E1EC01AF01FC01BF00B
:1040B0002AEC29F0000E196E090E186E1CC026F0AD
:1040C0001DC027F02050262621502722FF0E26242F
:1040D0001A6EFF0E27201B6E2AEC29F0000E196EB7
:1040E0000B0E186E1EC026F01FC027F02250262689
:1040F00023502722FF0E26241A6EFF0E27201B6E48
:104100002AEC29F0000E196E050E186E000E1B6EBB
:10411000100E1A6E2AEC29F08094000E176E0E0E07
:10412000166E05EC29F080842B50281029102A10D7
:10413000D8A401D001D002D014D013D024C016F0DE
:1041400025C017F005EC29F02806000E295A2A5A36
:104150002B5A2B50281029102A10D8A401D001D096
:10416000EDD780821200106E000E166E1050030EF6
:10417000166401D001D002D073D072D01650020D57
:104180000001E10EF324D96E0001000EF420DA6E76
:10419000DF50106E1050160D0201000EF324116E48
:1041A0000201020EF420126E1650020D0001E10E03
:1041B000F324136E0001000EF420146E010E13247C
:1041C000D96E000E1420DA6EDF50156E1550010DF9
:1041D000F3501124D96EF4501220DA6EDF50D8B4A7
:1041E00001D001D003D0000E3DD03CD01650020DBE
:1041F0000001E10EF324D96E0001000EF420DA6E06
:10420000DF50106E1050160D0201000EF324116ED7
:104210000201020EF420126E1650020D0001E10E92
:10422000F324136E0001000EF420146E010E13240B
:10423000D96E000E1420DA6EDF50156E1550010D88
:10424000F3501124D96EF4501220DA6E0001D8C058
:10425000DFFF162A030E166401D001D08FD700D0DD
:10426000010E00D01200456E000E476E4550456E9F
:10427000000E466E4550ABEC22F0EBEC25F0456E9F
:10428000010E686E4550DCEC09F0F2EC28F0B9C084
:1042900018F0BAC019F06AC01AF0B7C01BF0B8C065
:1042A0001CF089EC1EF059D000010001D051D8B4A7
:1042B00001D001D018D06850D8B401D001D013D0AB
:1042C000B9C018F0BAC019F06AC01AF0B7C01BF034
:1042D000B8C01CF089EC1EF0456E000E0001000114
:1042E000D06F455000D0686601D001D036D0466608
:1042F00001D001D018D0656601D001D002D0472A84
:1043000000D04750030AD8A401D001D026D0456E72
:10431000000E476E4550456E010E466E4550EBEC63
:1043200025F01BD01AD0656601D001D002D0472AF3
:1043300000D04750030AD8A401D001D00ED0456E5A
:10434000000E476E4550456E000E466E4550C4EC5B
:1043500028F003D002D001D000D083B201D001D028
:10436000A3D700D01200F29EA198A69EA69CA68478
:10437000106E000E146E1050090E146401D001D09E
:1043800002D06BD06AD0106E000E156E10500F0E5A
:10439000156401D001D002D05AD059D01450100D5C
:1043A000F3501524A96E040E156001D001D023D05E
:1043B0001450040D0001800EF324D96E0001000E8C
:1043C000F420DA6EDECF10F0DECF11F0DECF12F087
:1043D000DECF13F01550080DF3500008180FE82A2F
:1043E00005D0D8901332123211321032E82EF9D79C
:1043F0001050A86E19D014500C0DFC0E1524106E20
:10440000116AFF0E112201010C0E1024126E01011F
:10441000010E1120136EF3501224D96EF4501320A4
:10442000DA6EDF50A86E00D0550EA76EAA0EA76EEA
:10443000A68201D000F0A1A801D001D0FBD7A1989D
:10444000152A0F0E156401D001D0A8D700D0142A68
:10445000090E146401D001D096D7A694F28E1200F2
:10446000116E000E136E11506AD0116E000E136E95
:104470001150030E136401D001D002D013D012D01A
:104480001350020D0001E10EF324D96E0001000E5D
:10449000F420DA6EDF06132A030E136401D001D074
:1044A000EFD700D000010001E90754D0116E000ED3
:1044B000136E1150030E136401D001D002D013D03B
:1044C00012D01350020D0001E10EF324D96E000149
:1044D000000EF420DA6EDF2A132A030E136401D0D3
:1044E00001D0EFD700D000010001E92B33D0116ECD
:1044F000000E136E1150030E136401D001D002D0D0
:1045000019D018D01350020D0001E10EF324116EE2
:104510000001000EF420126E010E1124D96E000E5F
:104520001220DA6EDF06132A030E136401D001D0C5
:10453000E9D700D000010001EA070CD00BD01050E1
:10454000000AD8B492D7010AD8B4B0D7030AD8B4B5
:10455000CED700D01200000E2D6E000E2C6E000E75
:104560002F6E000E2E6E000E316EF00E306E010EAC
:10457000336E400E326E880E356E610E346EDBEC9B
:1045800028F05B0E236ECA0E226E740E256ECD0EC1
:10459000246E000E276E000E266E000E296E400E51
:1045A000286E000E2B6E780E2A6E000E2D6E230ED6
:1045B0002C6E0FEC1CF07F0E236E880E226E436E65
:1045C000020E246E4350000E266E000E256E000E65
:1045D000286EC80E276E446E010E296E4450FF0EE1
:1045E0002B6ECC0E2A6E880E2D6E610E2C6ED7ECC3
:1045F00014F07F0E236EDB0E226E436E020E246ECD
:104600004350000E266E000E256E000E286ED90E49
:10461000276E446E010E296E4450FF0E2B6ECC0E99
:104620002A6E880E2D6E610E2C6ED7EC14F01200DF
:104630006450060AD8A401D001D023D00001000E96
:10464000176E0001D40E166EFF0E6B24106E116AE9
:10465000FF0E1122000E136E1F0E126E73EC28F067
:10466000F90E1024186E7C0E1120196E000E1B6EB0
:104670001F0E1A6E69EC27F0236E000E646E235035
:104680002CD00001000E176E0001D40E166E64507F
:10469000010D0001A80EF324D96E0001000EF420D4
:1046A000DA6EDF50236EFF0E2324106E116AFF0EA8
:1046B0001122000E136E1F0E126E73EC28F0F90E0D
:1046C0001024186E7C0E1120196E000E1B6E1F0E2A
:1046D0001A6E69EC27F0642A00D06450010D0001C5
:1046E000A80EF324D96E0001000EF420DA6EDF501C
:1046F0006B6E6450060AD8A401D001D003D0AFEC91
:1047000024F000D01200366E000E3E6E3650030EBE
:104710003E6401D001D002D05ED05DD03E50020D8B
:104720000001E10EF324D96E0001000EF420DA6ED0
:10473000DF50366E376A363A373AF00E3716365053
:104740000F0B3712F00E361636C03AF037C03BF07A
:104750003E50020D0001E10EF324366E0001000E02
:10476000F420376E010E3624D96E000E3720DA6E33
:10477000DF50386E396A381E391E384A392A383ABD
:10478000393AF00E391638500F0B3912F00E381630
:10479000300E38243C6E010E39203D6E3AC02CF0AC
:1047A0003BC02DF03CC02EF03DC02FF0000E316E0E
:1047B000100E306E000E336E100E326E000E356E1F
:1047C000000E346EDBEC28F03E2A030E3E6401D06E
:1047D00001D0A4D700D01200CD90B19081820F0EED
:1047E000C16E010E926EFE0E956E9490949294940A
:1047F000000E816E000E8A6E000E936E938A616EBB
:10480000010E00010001F76F61508082900E0001DF
:104810000001F36FD00E0001F46F030E0001F56F7D
:10482000000E0001F66F00010001F651F311F411C2
:10483000F511D8A401D001D002D017D016D000F0C5
:1048400000010001F307000E0001F45B0001F55BBD
:104850000001F65B00010001F651F311F411F511AE
:10486000D8A401D001D0EBD700D0F4EC0BF04CEC85
:1048700029F044EC29F0D58EFE0ED76EFC0ED66ED4
:1048800038EC19F000D033EC21F0616E000E686E48
:1048900061503FEC12F00EEC00F0F5D7F4D70CEFBE
:1048A00000F01A6E000E1C6E1A5019AE01D001D025
:1048B00009D0186C191ED8B0192A1A6E010E1C6E78
:1048C0001A5000D017AE01D001D007D0166C171EB9
:1048D000D8B0172A010E1C1A00D0000E1E6E000E52
:1048E0001D6E19501810D8B401D001D028D01A6EFE
:1048F000010E1B6E1A5005D0D890183619361B2A97
:1049000000D019AE01D001D0F7D701D000D0D89097
:104910001D361E361850165C19501758D8A001D0F5
:1049200001D006D01850165E1950175A1D8000D0BD
:10493000D890193218321B2EEAD701D000D01C5063
:10494000D8B401D001D005D01D6C1E1ED8B01E2ACF
:1049500000D01DC016F01EC017F000D012001E6E51
:10496000000E226E1E501E6E000E1F6E1E501E6E1A
:10497000000E00010001A86F1E5043D028EC26F065
:104980001C50070B216E2150D8B401D001D039D072
:104990001E6E000E206E1E5016D02050010D00011C
:1049A000A80EF324D96E0001000EF420DA6E215017
:1049B000DF6201D001D005D01E6E010E1F6E1E50A9
:1049C00008D0202A00D02250205CD8A001D001D0ED
:1049D000E4D71F6601D001D00ED02250010D000196
:1049E000A80EF324D96E0001000EF420DA6E21C067
:1049F000DFFF222A00D01E6E000E1F6E1E5001D057
:104A000000D02250070AD8A401D001D0B7D700D0D7
:104A10001200146E000E166E145011AE01D001D0AB
:104A200009D0106C111ED8B0112A146E010E166E2A
:104A3000145000D013AE01D001D005D0126C131E5B
:104A4000D8B0132A00D013501210D8B401D001D01E
:104A500024D0146E010E156E145005D0D890123665
:104A60001336152A00D013AE01D001D0F7D701D0EC
:104A700000D01250105C13501158D8A001D001D0B2
:104A800005D01250105E1350115A00D0D890133236
:104A90001232152EEED701D000D01650D8B401D066
:104AA00001D005D0106C111ED8B0112A00D010C052
:104AB00010F011C011F000D01200000E196E000E9F
:104AC0001A6E000E1B6E000E1C6E1750141015107F
:104AD0001610D8B401D001D035D0186E010E1D6E5D
:104AE000185007D0D89014361536163617361D2AAA
:104AF00000D017AE01D001D0F5D701D000D0D890AA
:104B000019361A361B361C361450105C15501158C5
:104B10001650125817501358D8A001D001D00AD0FF
:104B20001450105E1550115A1650125A1750135A3D
:104B3000198000D0D89017321632153214321D2E3B
:104B4000DED700D019C010F01AC011F01BC012F04F
:104B50001CC013F012002550221023102410D8B4CA
:104B600001D001D02FD0266E010E276E265007D01F
:104B7000D8902236233624362536272A00D025AE73
:104B800001D001D0F5D701D000D022501E5C2350B7
:104B90001F582450205825502158D8A001D001D0AA
:104BA00009D022501E5E23501F5A2450205A2550EF
:104BB000215A00D0D8902532243223322232272E97
:104BC000E4D700D01EC01EF01FC01FF020C020F090
:104BD00021C021F012007F0E236E790E226E436EEB
:104BE000020E246E4350000E266E000E256E010E3E
:104BF000286E1D0E276E446E010E296E4450FF0E66
:104C00002B6ECC0E2A6E880E2D6E610E2C6ED7EC9C
:104C100014F07F0E236ECC0E226E436E020E246EB5
:104C20004350000E266E000E256E010E286E2E0ECD
:104C3000276E446E010E296E4450FF0E2B6ECC0E73
:104C40002A6E880E2D6E610E2C6ED7EC14F01200B9
:104C500000010001D36701D001D007D0000E116E12
:104C6000010E106E18EC29F000D0AFC010F0B0C0EB
:104C700011F0B1C012F0B2C013F06D0E146E4E0EF2
:104C8000156EC60E166E410E176E38EC27F0390EF3
:104C9000102400010001AF6F300E11200001B06F31
:104CA000000E12200001B16F000E13200001B26F40
:104CB000FF0E0001B1151C6E7F0E0001B2151D6EB6
:104CC00000D01200106E000E126E1050090E126409
:104CD00001D001D002D02ED02DD0106E000E136E58
:104CE0001050150E136401D001D002D01CD01BD07F
:104CF0001250160D0201000EF324106E0201020E76
:104D0000F420116E1350010DF3501024D96EF4509D
:104D10001120DA6E000EDF6E132A150E136401D017
:104D200001D0E6D700D0122A090E126401D001D0BA
:104D3000D4D700D01200000E166E000E156E135060
:104D40001210D8B401D001D027D0146E010E176E06
:104D5000145005D0D89012361336172A00D013AE4F
:104D600001D001D0F7D701D000D0D8901536163633
:104D70001250105C13501158D8A001D001D006D0A9
:104D80001250105E1350115A158000D0D890133273
:104D90001232172EEAD700D015C010F016C011F04D
:104DA0001200146E090E186E145018AE01D001D006
:104DB00002D028D027D01850040D0001800EF32413
:104DC000D96E0001000EF420DA6EDECF14F0DECFD3
:104DD00015F0DECF16F0DECF17F01050145C115036
:104DE00015581250165813501758D8B001D001D08A
:104DF00003D0010E09D008D0180618AE01D001D09A
:104E0000DAD700D0000E00D01200839000F000F03E
:104E100000F000F000F000F000F000F000F000F012
:104E200000F000F000F000F000F000F000F000F002
:104E300000F000F000F000F000F000F0838000F0DF
:104E400000F000F000F000F000F000F000F000F0E2
:104E500000F000F000F000F000F000F000F000F0D2
:104E600000F000F000F000F000F000F000F01200A0
:104E7000000E186E000E196E000E1A6E000E1B6EDC
:104E800000D010A001D001D009D014501826155020
:104E9000192216501A2217501B2200D0D89014360F
:104EA000153616361736D8901332123211321032A8
:104EB0001350101011101210D8A401D001D0E1D756
:104EC00018C010F019C011F01AC012F01BC013F076
:104ED000120018C01EF019C01FF016C01CF017C039
:104EE0001DF01AD01EC0F6FF1FC0F7FFF86A1CC0E5
:104EF000D9FF1DC0DAFF050EF76403D00800F55096
:104F000005D0F6CFE9FFF7CFEAFFEF50DF6E1E4A7C
:104F10001F2A1C4A1D2A00D01A06D8A01B061A28D0
:104F2000D8B41B28D8A401D001D0DCD700D01200FF
:104F30008092000E196E050E186E000E1B6E000E8C
:104F40001A6E2AEC29F0000E196E060E186E1CC09F
:104F50001AF01DC01BF02AEC29F0000E196E070E86
:104F6000186E1EC01AF01FC01BF02AEC29F08094A6
:104F7000000E176E0E0E166E05EC29F0808420C010
:104F800016F021C017F005EC29F08082120002EE25
:104F900000F0DC0EEE6AE806FDE101EE00F0840EA2
:104FA000EE6AE806FDE100EE80F0730EEE6AE806B8
:104FB000FDE100EE62F00F0EEE6AE806FDE1A60EDE
:104FC000F66E520EF76E000EF86E00EEF8F010EE70
:104FD00004F00900F5CFEEFFE550E150FAE1000ED4
:104FE000F86E0001ECEF23F03F6E030E406E3F5071
:104FF0003EC022F03F6E020E236E3F503D500C0D1E
:105000004050F324246E000EF420256E000E276E0F
:10501000690E266EF70E296E800E286E000E2B6E1E
:10502000000E2A6EF9EC1CF012003DC022F03E6E1C
:10503000020E236E3E50C5C024F0C6C025F0C7C086
:1050400026F0C8C027F0FAC028F0FBC029F0C3C082
:105050002AF0C4C02BF0F9EC1CF00C0E000100018A
:10506000C527000E0001C6231200376E030E386EEE
:10507000375036500C0D3850F3242C6E000EF420AF
:105080002D6E000E2F6E780E2E6E000E316E0A0EF3
:10509000306E000E336E030E326E000E356E000E53
:1050A000346EDBEC28F01200376E030E386E37508A
:1050B00036500C0D3850F3242C6E000EF4202D6E5B
:1050C000000E2F6E780E2E6E000E316E0A0E306EB0
:1050D000000E336E030E326EF70E356E800E346E98
:1050E000DBEC28F01200000E156E000E146E00D0DE
:1050F00010A001D001D005D0125014261350152253
:1051000000D0D89012361336D89011321032115088
:105110001010D8A401D001D0EBD714C010F015C0E6
:1051200011F0120010C016F011C017F009D016C00F
:10513000D9FF17C0DAFF12C0DFFF164A172A00D0C6
:105140001406D8A015061428D8B41528D8A401D060
:1051500001D0EDD700D01200116E000E126E11506A
:105160003A0E106001D001D00AD02F0E106401D089
:1051700001D005D0116E010E126E115000D012C078
:1051800011F0113000D01200000E2D6E000E2C6EAA
:10519000010E2F6E1D0E2E6E000E316EF00E306E53
:1051A000000E336E220E326E880E356E610E346E36
:1051B000DBEC28F012002CC01CF02DC01DF02EC01E
:1051C0001EF02FC01FF030C020F031C021F032C0DF
:1051D00022F033C023F034C024F035C025F02FEC8A
:1051E00020F01200CD8E300ECD12CD92CD80000E6B
:1051F000CF6E000ECE6EB18ECF0EB116B192B180D1
:10520000000EB36E000EB26E12001750C96E01D0C0
:1052100000F09EA601D001D0FBD79E9616C0C9FF14
:1052200001D000F09EA601D001D0FBD79E961200BF
:10523000000110C0AFF0000111C0B0F0000100018A
:10524000B16B0001B26B126E010E00010001D36F51
:1052500012501200809418C016F019C017F005EC17
:1052600029F080841AC016F01BC017F005EC29F055
:1052700012000001000E1D6E0001E10E1C6ED8C070
:105280001EF0E3EC10F01200D59ED59CD59AD58087
:10529000D582D584D5961200D09EF28A9D80A082B8
:1052A000F28CF28E12003200FFFFFF00FF00FF00C1
:10555000FF00FF00FF00FF00313665362C3136704A
:105560002C3136622C313663362C313664362C338E
:105570003265362C333264362C313663362C313674
:10558000622C3136612C3136702C3136612C31363B
:1055900063362C313665362C3136702C3136643614
:1055A0002C313663362C3136622C38702C31366310
:1055B000362C313664362C3136702C313665362C2B
:1055C0003136702C313663362C3136702C313661E1
:1055D0002C3136702C3136612C702C313664362CDF
:1055E0003136702C313666362C313661362C3136F8
:1055F000702C313667362C313666362C31366536AE
:105600002C38702C313663362C313665362C3332DB
:1056100066362C333265362C313664362C3136639F
:10562000362C3136622C38702C313663362C3136BC
:1056300064362C313667232C313665362C3136678B
:10564000232C313663362C3136702C3136612C31B7
:1056500036702C612C313665362C3136702C313653
:10566000622C313663362C313664362C3332653653
:105670002C333264362C313663362C3136622C3181
:1056800036612C3136702C3136612C313663362C34
:10569000313665362C3136702C313664362C313645
:1056A00063362C3136622C38702C313663362C310F
:1056B0003664362C3136702C313665362C313670E6
:1056C0002C313663362C3136702C3136612C313624
:1056D000702C3136612C702C313664362C3136709A
:1056E0002C313666362C313661362C3136702C3101
:1056F0003667362C313666362C313665362C3870A6
:105700002C313663362C313665362C333266362CE6
:10571000333265362C313664362C313663362C31D3
:1057200036622C38702C313663362C313664362C88
:10573000313667232C313665362C313667232C31D0
:105740003663362C3136702C3136612C3136702C64
:10575000612C652C632C642C62342C632C61342CFA
:105760006723342C62342C652C632C642C62342C1B
:1057700038632C38652C612C3267232C3136653622
:105780002C3136702C3136622C313663362C313662
:1057900064362C333265362C333264362C31366322
:1057A000362C3136622C3136612C3136702C313644
:1057B000612C313663362C313665362C3136702CFF
:1057C000313664362C313663362C3136622C3870E3
:1057D0002C313663362C313664362C3136702C3110
:1057E0003665362C3136702C313663362C313670B6
:1057F0002C3136612C3136702C3136612C702C31C5
:105800003664362C3136702C313666362C313661A2
:10581000362C3136702C313667362C313666362CC4
:10582000313665362C38702C313663362C3136657E
:10583000362C333266362C333265362C31366436AC
:105840002C313663362C3136622C38702C3136636D
:10585000362C313664362C313667232C313665369A
:105860002C313667232C313663362C3136702C318F
:1058700036612C3136702C612C3136700031366532
:10588000362C3136702C3136622C313663362C3161
:105890003664362C333265362C333264362C31364E
:1058A00063362C3136622C3136612C3136702C3116
:1058B00036612C313663362C313665362C313670F4
:1058C0002C313664362C313663362C3136622C3826
:1058D000702C313663362C313664362C3136702CD0
:1058E000313665362C3136702C313663362C3136F4
:1058F000702C3136612C3136702C3136612C702C85
:10590000313664362C3136702C313666362C3136D1
:1059100061362C3136702C313667362C313666368E
:105920002C313665362C38702C313663362C3136B6
:1059300065362C333266362C333265362C3136647C
:10594000362C313663362C3136622C38702C313699
:1059500063362C313664362C313667232C3136656C
:10596000362C313667232C313663362C3136702C89
:105970003136612C3136702C612C313665362C3144
:1059800036702C3136622C313663362C3136643623
:105990002C333265362C333264362C313663362C58
:1059A0003136622C3136612C3136702C3136612C17
:1059B000313663362C313665362C3136702C313623
:1059C00064362C313663362C3136622C38702C31EB
:1059D0003663362C313664362C3136702C313665D0
:1059E000362C3136702C313663362C3136702C31F2
:1059F00036612C3136702C3136612C702C31366486
:105A0000362C3136702C313666362C313661362CD8
:105A10003136702C313667362C313666362C3136BD
:105A200065362C38702C313663362C313665362C81
:105A3000333266362C333265362C313664362C31AF
:105A40003663362C3136622C38702C313663362C66
:105A5000313664362C313667232C313665362C319D
:105A60003667232C313663362C3136702C31366153
:105A70002C3136702C612C652C632C642C62342CF8
:105A8000632C61342C6723342C62342C652C632CFA
:105A9000642C62342C38632C38652C612C326723DB
:105AA0002C313665362C3136702C3136622C31363D
:105AB00063362C313664362C333265362C333264FF
:105AC000362C313663362C3136622C3136612C312E
:105AD00036702C3136612C313663362C31366536D2
:105AE0002C3136702C313664362C313663362C31FD
:105AF00036622C38702C313663362C313664362CB5
:105B00003136702C313665362C3136702C31366397
:105B1000362C3136702C3136612C3136702C3136C2
:105B2000612C702C313664362C3136702C3136664F
:105B3000362C313661362C3136702C313667362CA6
:105B4000313666362C313665362C38702C3136635A
:105B5000362C313665362C333266362C3332653688
:105B60002C313664362C313663362C3136622C3883
:105B7000702C313663362C313664362C313667233F
:105B80002C313665362C313667232C313663362C72
:105B90003136702C3136612C3136702C612C313617
:105BA0007000010000000A00000064000000E8032B
:105BB000000010270000A086010040420F008096E0
:105BC000980000E1F50500CA9A3B000000000000C3
:105BD00000000000000000000000000000000000C5
:105BE00000000000000000000000000000000000B5
:105BF00000000000000000000000000000000000A5
:105C00000000000000000000000000000000000094
:105C10000000000000000000000000000000000084
:105C20000000000000000000000000000000000173
:105C30000200000000000000000000000000000062
:105C40000000000000000000000000000000000054
:105C50000000000000000000000000000000000044
:105C60000000000000000000000000000000000034
:105C70000000000000000000000000000000000024
:105C80000000000000000000000000000000000014
:105C90000000000000000000000000000000000004
:105CA00000000000030405060708090000000000CA
:105CB00000000000000000000000000000000000E4
:105CC00000000000000000000000000000000000D4
:105CD00000000000000000000000000000000000C4
:105CE00000000000000000000000000000000000B4
:105CF00000000000000000000000000000000000A4
:105D00000000000000000000000000000000000093
:105D100000000000000000000000000009080A0B5D
:105D20000C0D080000000000000000000000000052
:105D30000000000000000000000000000000000063
:105D40000000000000000000000000000000000053
:105D50000000000000000000000000000000000043
:105D60000000000000000000000000000000000033
:105D70000000000000000000000000000000000023
